{
  "_format": "hh-sol-artifact-1",
  "contractName": "idGenerator",
  "sourceName": "contracts/idGenerator.sol",
  "abi": [
    {
      "inputs": [],
      "stateMutability": "nonpayable",
      "type": "constructor"
    },
    {
      "anonymous": false,
      "inputs": [
        {
          "indexed": true,
          "internalType": "uint256",
          "name": "ticketId",
          "type": "uint256"
        },
        {
          "indexed": true,
          "internalType": "address",
          "name": "buyer",
          "type": "address"
        },
        {
          "indexed": false,
          "internalType": "uint256",
          "name": "timestamp",
          "type": "uint256"
        }
      ],
      "name": "TicketIssued",
      "type": "event"
    },
    {
      "inputs": [],
      "name": "getMyTickets",
      "outputs": [
        {
          "internalType": "uint256[]",
          "name": "",
          "type": "uint256[]"
        }
      ],
      "stateMutability": "view",
      "type": "function"
    },
    {
      "inputs": [],
      "name": "id",
      "outputs": [
        {
          "internalType": "uint256",
          "name": "",
          "type": "uint256"
        }
      ],
      "stateMutability": "view",
      "type": "function"
    },
    {
      "inputs": [
        {
          "internalType": "address",
          "name": "",
          "type": "address"
        },
        {
          "internalType": "uint256",
          "name": "",
          "type": "uint256"
        }
      ],
      "name": "myTickets",
      "outputs": [
        {
          "internalType": "uint256",
          "name": "",
          "type": "uint256"
        }
      ],
      "stateMutability": "view",
      "type": "function"
    },
    {
      "inputs": [],
      "name": "owner",
      "outputs": [
        {
          "internalType": "address",
          "name": "",
          "type": "address"
        }
      ],
      "stateMutability": "view",
      "type": "function"
    },
    {
      "inputs": [
        {
          "internalType": "uint256",
          "name": "x",
          "type": "uint256"
        }
      ],
      "name": "setId",
      "outputs": [],
      "stateMutability": "nonpayable",
      "type": "function"
    },
    {
      "inputs": [
        {
          "internalType": "uint256",
          "name": "",
          "type": "uint256"
        }
      ],
      "name": "tickets",
      "outputs": [
        {
          "internalType": "uint256",
          "name": "ticketId",
          "type": "uint256"
        },
        {
          "internalType": "address",
          "name": "buyer",
          "type": "address"
        },
        {
          "internalType": "uint256",
          "name": "timestamp",
          "type": "uint256"
        },
        {
          "internalType": "bool",
          "name": "isValid",
          "type": "bool"
        }
      ],
      "stateMutability": "view",
      "type": "function"
    },
    {
      "inputs": [],
      "name": "totalTickets",
      "outputs": [
        {
          "internalType": "uint256",
          "name": "",
          "type": "uint256"
        }
      ],
      "stateMutability": "view",
      "type": "function"
    },
    {
      "inputs": [
        {
          "internalType": "uint256",
          "name": "_ticketId",
          "type": "uint256"
        }
      ],
      "name": "validateTicket",
      "outputs": [
        {
          "internalType": "bool",
          "name": "",
          "type": "bool"
        }
      ],
      "stateMutability": "view",
      "type": "function"
    }
  ],
  "bytecode": "0x608060405234801561001057600080fd5b5033600160006101000a81548173ffffffffffffffffffffffffffffffffffffffff021916908373ffffffffffffffffffffffffffffffffffffffff1602179055506108dc806100616000396000f3fe608060405234801561001057600080fd5b50600436106100885760003560e01c8063af640d0f1161005b578063af640d0f1461013e578063d0e0ba951461015c578063dd11247e14610178578063e1d10d851461019657610088565b8063054ae7df1461008d5780632053f9eb146100bd57806350b44712146100ed5780638da5cb5b14610120575b600080fd5b6100a760048036038101906100a2919061053f565b6101b4565b6040516100b49190610587565b60405180910390f35b6100d760048036038101906100d29190610600565b6101e1565b6040516100e4919061064f565b60405180910390f35b6101076004803603810190610102919061053f565b610212565b6040516101179493929190610679565b60405180910390f35b61012861026f565b60405161013591906106be565b60405180910390f35b610146610295565b604051610153919061064f565b60405180910390f35b6101766004803603810190610171919061053f565b61029b565b005b610180610469565b60405161018d919061064f565b60405180910390f35b61019e61046f565b6040516101ab9190610797565b60405180910390f35b60006003600083815260200190815260200160002060030160009054906101000a900460ff169050919050565b600460205281600052604060002081815481106101fd57600080fd5b90600052602060002001600091509150505481565b60036020528060005260406000206000915090508060000154908060010160009054906101000a900473ffffffffffffffffffffffffffffffffffffffff16908060020154908060030160009054906101000a900460ff16905084565b600160009054906101000a900473ffffffffffffffffffffffffffffffffffffffff1681565b60005481565b608160e76103e8836102ad91906107e8565b6102b791906107e8565b6102c1919061082a565b600081905550600260008154809291906102da9061085e565b9190505550604051806080016040528060005481526020013373ffffffffffffffffffffffffffffffffffffffff1681526020014281526020016001151581525060036000805481526020019081526020016000206000820151816000015560208201518160010160006101000a81548173ffffffffffffffffffffffffffffffffffffffff021916908373ffffffffffffffffffffffffffffffffffffffff1602179055506040820151816002015560608201518160030160006101000a81548160ff021916908315150217905550905050600460003373ffffffffffffffffffffffffffffffffffffffff1673ffffffffffffffffffffffffffffffffffffffff16815260200190815260200160002060005490806001815401808255809150506001900390600052602060002001600090919091909150553373ffffffffffffffffffffffffffffffffffffffff166000547f885aea068dfc8d64b3da0c1131d16d6e26947c043fb441c446de14a01087540d4260405161045e919061064f565b60405180910390a350565b60025481565b6060600460003373ffffffffffffffffffffffffffffffffffffffff1673ffffffffffffffffffffffffffffffffffffffff1681526020019081526020016000208054806020026020016040519081016040528092919081815260200182805480156104fa57602002820191906000526020600020905b8154815260200190600101908083116104e6575b5050505050905090565b600080fd5b6000819050919050565b61051c81610509565b811461052757600080fd5b50565b60008135905061053981610513565b92915050565b60006020828403121561055557610554610504565b5b60006105638482850161052a565b91505092915050565b60008115159050919050565b6105818161056c565b82525050565b600060208201905061059c6000830184610578565b92915050565b600073ffffffffffffffffffffffffffffffffffffffff82169050919050565b60006105cd826105a2565b9050919050565b6105dd816105c2565b81146105e857600080fd5b50565b6000813590506105fa816105d4565b92915050565b6000806040838503121561061757610616610504565b5b6000610625858286016105eb565b92505060206106368582860161052a565b9150509250929050565b61064981610509565b82525050565b60006020820190506106646000830184610640565b92915050565b610673816105c2565b82525050565b600060808201905061068e6000830187610640565b61069b602083018661066a565b6106a86040830185610640565b6106b56060830184610578565b95945050505050565b60006020820190506106d3600083018461066a565b92915050565b600081519050919050565b600082825260208201905092915050565b6000819050602082019050919050565b61070e81610509565b82525050565b60006107208383610705565b60208301905092915050565b6000602082019050919050565b6000610744826106d9565b61074e81856106e4565b9350610759836106f5565b8060005b8381101561078a5781516107718882610714565b975061077c8361072c565b92505060018101905061075d565b5085935050505092915050565b600060208201905081810360008301526107b18184610739565b905092915050565b7f4e487b7100000000000000000000000000000000000000000000000000000000600052601160045260246000fd5b60006107f382610509565b91506107fe83610509565b925082820261080c81610509565b91508282048414831517610823576108226107b9565b5b5092915050565b600061083582610509565b915061084083610509565b9250828201905080821115610858576108576107b9565b5b92915050565b600061086982610509565b91507fffffffffffffffffffffffffffffffffffffffffffffffffffffffffffffffff820361089b5761089a6107b9565b5b60018201905091905056fea264697066735822122026ce015b2316f20712b016c47bbf728db2ad9ff2cde26de818466ddde4bbae8964736f6c63430008110033",
  "linkReferences": {},
  "deployedLinkReferences": {}
}